:100000000C9434000C94D0000C94DF000C9451003C
:100010000C9451000C9451000C9451000C9451001C
:100020000C9451000C9451000C9451000C9451000C
:100030000C9451000C9451000C9451000C945100FC
:100040000C9451000C9451000C9451000C945100EC
:100050000C9451000C9451000C9451000C945100DC
:100060000C9451000C94510011241FBECFEFD8E026
:10007000DEBFCDBF11E0A0E0B1E0E0EDFCE002C0EA
:1000800005900D92AA32B107D9F721E0AAE2B1E0BA
:1000900001C01D92A033B207E1F70E94C4010C9485
:1000A00066060C94000080E480937C0087E88093CF
:1000B0007A000895ECE7F0E09081907F8F70892BB3
:1000C0008083EAE7F0E080818064808380917A0019
:1000D00086FDFCCF8091780090917900089580E0B2
:1000E0000E945A00BC0180E090E00E94580220E08B
:1000F00030E040EA50E40E949A0220E030E040E81C
:100100005AE30E949A0220E030E048EC52E40E9458
:100110009A0208950F931F93CF93DF93CDB7DEB765
:1001200060970FB6F894DEBF0FBECDBF809100017F
:10013000882359F160E080E00E94BC0181E091E0F9
:100140000E944E0160E081E00E94BC0180912D017F
:100150008F9380912C018F9380912B018F938091AD
:100160002A018F938AE091E09F938F938E010F5F16
:100170001F4F1F930F930E947C03C8010E944E01E2
:100180000FB6F894DEBF0FBECDBF60960FB6F894E1
:10019000DEBF0FBECDBFDF91CF911F910F910895AC
:1001A0001F920F920FB60F9211248F9381E08093CC
:1001B0002F018F910F900FBE0F901F9018951F92D7
:1001C0000F920FB60F9211248F9381E080932E012E
:1001D0008F910F900FBE0F901F901895E9E6F0E0F9
:1001E00080818360808380818C6080838DB3836015
:1001F0008DBB7894089585B1846085B985E08A9532
:10020000F1F7000085B18B7F85B98FE891E0019708
:10021000F1F700C0000008959BB19F70807F892B8B
:100220008BB90E94FB000895CF93C82F85B18E7FB4
:1002300085B985B18D7F85B98C2F0E940C018C2FDB
:100240008295807F0E940C01C150C23038F48FE348
:100250009FE10197F1F700C0000006C08FE891E030
:100260000197F1F700C00000CF910895CF93C82FF8
:1002700085B1816085B985B18D7F85B98C2F0E944C
:100280000C018C2F8295807F0E940C018FE891E0F9
:100290000197F1F700C00000CF910895CF93DF934D
:1002A000EC0103C021960E94360188818111FACFAA
:1002B000DF91CF91089581E00E9414018FE39FE1C7
:1002C0000197F1F700C0000008958AB1806F8AB9E4
:1002D00084B1876084B92FEF80E792E0215080409D
:1002E0009040E1F700C0000085B18E7F85B985B1EF
:1002F0008D7F85B980E30E940C018FE19EE4019718
:10030000F1F700C0000080E30E940C0187E592E055
:100310000197F1F700C0000080E30E940C0187E51F
:1003200092E00197F1F700C0000080E20E940C010A
:1003300087E592E00197F1F700C0000088E20E9493
:10034000140187E592E00197F1F700C000008CE00E
:100350000E94140187E592E00197F1F700C00000C8
:100360000E945B0186E00E9414018FE39FE10197E8
:10037000F1F700C000000895813009F4605C862F19
:1003800080680E94140108950E9465010E94530034
:100390000E94EE0080910001882329F10E948A00CA
:1003A0002FEF81EE94E0215080409040E1F700C0B3
:1003B000000080912A0190912B01A0912C01B09115
:1003C0002D01803A26E8920721E0A207B10558F4F2
:1003D0000196A11DB11D80932A0190932B01A0933A
:1003E0002C01B0932D010E946F0020E030E048EC1A
:1003F00051E40E94950218160CF5109200010E941B
:100400005B018EE091E00E944E0109C08FEF99E6FA
:1004100028E1815090402040E1F700C000000E9498
:100420006F0020E030E048EC51E40E94950218167D
:100430006CF30E945B0181E08093000180912F01A9
:100440008823C1F0109200010E945B0189E191E0D4
:100450000E944E018FEF93E224EF815090402040A4
:10046000E1F700C000000E945B0181E08093000181
:1004700010922F0180912E01882309F48BCF1092C6
:1004800000010E945B0181E291E00E944E018FEF2A
:1004900093E224EF815090402040E1F700C000003B
:1004A0000E945B0181E08093000110922E0172CFC7
:1004B000E89409C097FB3EF49095809570956195FE
:1004C0007F4F8F4F9F4F9923A9F0F92F96E9BB27B4
:1004D0009395F695879577956795B795F111F8CF30
:1004E000FAF4BB0F11F460FF1BC06F5F7F4F8F4F9B
:1004F0009F4F16C0882311F096E911C0772321F091
:100500009EE8872F762F05C0662371F096E8862F28
:1005100070E060E02AF09A95660F771F881FDAF77F
:10052000880F9695879597F908950E94070308F418
:100530008FEF08950E94AD020C9442030E94340391
:1005400038F00E943B0320F0952311F00C942B030C
:100550000C94310311240C9476030E94530370F31E
:10056000959FC1F3950F50E0551F629FF001729F58
:10057000BB27F00DB11D639FAA27F00DB11DAA1F67
:10058000649F6627B00DA11D661F829F2227B00DB4
:10059000A11D621F739FB00DA11D621F839FA00D3F
:1005A000611D221F749F3327A00D611D231F849F8F
:1005B000600D211D822F762F6A2F11249F575040E6
:1005C0009AF0F1F088234AF0EE0FFF1FBB1F661F61
:1005D000771F881F91505040A9F79E3F510580F02A
:1005E0000C942B030C9476035F3FE4F3983ED4F312
:1005F000869577956795B795F795E7959F5FC1F7CE
:10060000FE2B880F911D9695879597F90895990F60
:100610000008550FAA0BE0E8FEEF16161706E807CC
:10062000F907C0F012161306E407F50798F0621BED
:10063000730B840B950B39F40A2661F0232B242BC2
:10064000252B21F408950A2609F4A140A6958FEFE1
:10065000811D811D089597F99F6780E870E060E033
:1006600008959FEF80EC089500240A94161617064B
:1006700018060906089500240A9412161306140693
:1006800005060895092E0394000C11F4882352F0F6
:10069000BB0F40F4BF2B11F460FF04C06F5F7F4FAE
:1006A0008F4F9F4F089557FD9058440F551F59F095
:1006B0005F3F71F04795880F97FB991F61F09F3F4F
:1006C00079F087950895121613061406551FF2CF78
:1006D0004695F1DF08C0161617061806991FF1CFC8
:1006E00086957105610508940895E894BB276627EF
:1006F0007727CB0197F90895AEE0B0E0E2E8F3E0A8
:100700000C943D060D891E8986E08C831A8309832B
:100710008FEF9FE79E838D83AE01475E5F4F6F89AA
:10072000788DCE0101960E949E03EF81F885E00F3F
:10073000F11F10822E96E4E00C945906ABE0B0E075
:10074000E4EAF3E00C942F066C017B018A01FC01C2
:1007500017821682838181FFCCC1CE0101963C01B4
:10076000F6019381F70193FD859193FF81917F01BC
:10077000882309F4BAC1853239F493FD859193FF3A
:1007800081917F01853229F4B60190E00E949505A0
:10079000E7CF912C212C312CFFE1F315D8F08B32CF
:1007A00079F038F4803279F08332A1F4232D20617E
:1007B0001DC08D3261F0803369F4232D216016C095
:1007C000832D8260382EE32DE4603E2E2AC0F32D67
:1007D000F8601DC037FC2DC020ED280F2A3040F0F6
:1007E0008E32B9F436FC81C1232D2064322E19C01B
:1007F00036FE06C08AE0989E200D1124922E11C06C
:10080000EAE02E9E200D1124222EF32DF0623F2EC1
:1008100008C08C3621F4832D8068382E02C08836BB
:1008200041F4F70193FD859193FF81917F0181113F
:10083000B3CF982F9F7D9554933028F40C5F1F4FB2
:100840009FE399830DC0833631F0833771F0833590
:1008500009F059C021C0F801808189830E5F1F4FC4
:1008600088248394912C530113C02801F2E04F0E89
:10087000511CF801A080B18036FE03C0692D70E0E4
:1008800002C06FEF7FEFC5010E948A054C01820113
:10089000F32DFF773F2E16C0280122E0420E511C97
:1008A000F801A080B18036FE03C0692D70E002C05F
:1008B0006FEF7FEFC5010E947F054C01F32DF068BB
:1008C0003F2E820133FC1BC0822D90E088169906D2
:1008D000B0F4B60180E290E00E9495052A94F4CF2E
:1008E000F50137FC859137FE81915F01B60190E0FB
:1008F0000E94950521102A9421E0821A9108811402
:10090000910471F7E8C0843611F0893641F5F80199
:1009100037FE07C060817181828193810C5F1F4F18
:1009200008C060817181072E000C880B990B0E5F47
:100930001F4FF32DFF763F2E97FF09C090958095AE
:10094000709561957F4F8F4F9F4FF0683F2E2AE043
:1009500030E0A3010E94D105882E861845C0853756
:1009600031F4232D2F7EB22E2AE030E025C0932DC6
:10097000997FB92E8F36C1F018F4883579F0B5C05B
:10098000803719F0883721F0B0C0E92FE061BE2E22
:10099000B4FE0DC0FB2DF460BF2E09C034FE0AC0AA
:1009A000292F2660B22E06C028E030E005C020E1E5
:1009B00030E002C020E132E0F801B7FE07C06081FC
:1009C0007181828193810C5F1F4F06C060817181AC
:1009D00080E090E00E5F1F4FA3010E94D105882E9A
:1009E0008618FB2DFF773F2E36FE0DC0232D2E7F60
:1009F000A22E891458F434FE0BC032FC09C0832D9A
:100A00008E7EA82E05C0B82CA32C03C0B82C01C024
:100A1000B92CA4FE0FC0FE01E80DF11D80818033CA
:100A200021F49A2D997EA92E09C0A2FE06C0B39486
:100A3000B39404C08A2D867809F0B394A3FC11C046
:100A4000A0FE06C0B21488F4280C922C9B180EC08D
:100A5000B21460F4B60180E290E00E949505B39470
:100A6000F7CFB21418F42B1802C0982C212CA4FE36
:100A700010C0B60180E390E00E949505A2FE17C069
:100A8000A1FC03C088E790E002C088E590E0B601D1
:100A90000CC08A2D867859F0A1FE02C08BE201C0FD
:100AA00080E2A7FC8DE2B60190E00E9495058914D2
:100AB00038F4B60180E390E00E9495059A94F7CF50
:100AC0008A94F301E80DF11D8081B60190E00E9447
:100AD00095058110F5CF222009F442CEB60180E2BF
:100AE00090E00E9495052A94F6CFF60186819781C1
:100AF00002C08FEF9FEF2B96E2E10C944B06FC01B6
:100B00000590615070400110D8F7809590958E0F38
:100B10009F1F0895FC016150704001900110D8F7AB
:100B2000809590958E0F9F1F08950F931F93CF93DD
:100B3000DF93FB01238121FD03C08FEF9FEF2CC0CA
:100B400022FF16C046815781248135814217530701
:100B500044F4A081B1819D012F5F3F4F31832083F9
:100B60008C93268137812F5F3F4F3783268314C0B4
:100B70008B01EC01FB010084F185E02D0995892BA7
:100B8000E1F6D80116968D919C91179701961796CC
:100B90009C938E931697CE01DF91CF911F910F9169
:100BA0000895FA01AA27283051F1203181F1E89403
:100BB0006F936E7F6E5F7F4F8F4F9F4FAF4FB1E050
:100BC0003ED0B4E03CD0670F781F891F9A1FA11D4B
:100BD000680F791F8A1F911DA11D6A0F711D811D4C
:100BE000911DA11D20D009F468943F912AE0269F11
:100BF00011243019305D3193DEF6CF010895462F70
:100C00004770405D4193B3E00FD0C9F7F6CF462F50
:100C10004F70405D4A3318F0495D31FD40524193B9
:100C200002D0A9F7EACFB4E0A69597958795779576
:100C30006795BA95C9F700976105710508959B01FD
:100C4000AC010A2E06945795479537952795BA9586
:100C5000C9F7620F731F841F951FA01D08952F925F
:100C60003F924F925F926F927F928F929F92AF923C
:100C7000BF92CF92DF92EF92FF920F931F93CF9389
:100C8000DF93CDB7DEB7CA1BDB0B0FB6F894DEBF20
:100C90000FBECDBF09942A88398848885F846E8446
:100CA0007D848C849B84AA84B984C884DF80EE8090
:100CB000FD800C811B81AA81B981CE0FD11D0FB699
:100CC000F894DEBF0FBECDBFED010895F894FFCFBD
:100CD00001434F4E5441444F5200256C750054451A
:100CE0004D5020414C54412100494E5430204F4B2F
:0A0CF00000494E5431204F4B000024
:00000001FF
